:03000000020912E0
:0C091200787FE4F6D8FD7581110208F62C
:1008D900506C616E742074726565732E2E2E0053F0
:0D08E9006176652077617465722E2E2E00F9
:0A091E008FA0C2B0120891C2B222ED
:0A0928008FA0D2B0120891C2B222D3
:08089100C2B1D2B27F017E006A
:10089900E4FDFCC3ED9FEC9E5015E4FBFA0BBB0095
:0F08A900010ABA04F8BBFBF50DBD00010C80E499
:0108B800221D
:060866008B0D8A0E890FC4
:10086C00E4F510F511AB0DAA0EA90F8511828510B8
:10087C0083120839FF600D1209280511E51170E586
:04088C00051080E1F2
:010890002245
:100800008F088D098B0A8A0B890CEF3395E04F70A6
:1008100008E509540F44808013AF08EF3395E0FEDC
:10082000EF64014E700AE509540F44C0FF12091E1F
:09083000AB0AAA0BA90C02086630
:1008B9007F147E001208997F3812091E7F0C1209D5
:1008C9001E7F0612091E7F0112091E7F8002091E62
:1008F6001208B97BFF7A0879D91208667FC01209F7
:0C0906001E7BFF7A0879E812086680FE6C
:10083900BB010CE58229F582E5833AF583E0225074
:1008490006E92582F8E622BBFE06E92582F8E222BE
:0D085900E58229F582E5833AF583E49322D8
:00000001FF
